:020000020000FC
:100000000DC00000013049F00A950F930F910F9336
:100010000F91000000000000F5CF08950F9300E05D
:100020000093C5000F910F930FEC0093C4000F9144
:100030000F9302E00093C0000F910F9308E100932B
:10004000C1000F910F9306E00093C2000F910F9330
:1000500000E600937C000F910F9307E800937A006D
:100060000F9112D018D01AD030D049D00F930AE097
:1000700002D00F91F6CF0F930091C00005FFFCCF87
:100080000F910093C60008950091C00007FFFCCFB8
:100090000091C60008950B3221F708950F9300E6F2
:1000A00000937C000F910F930AE0ABDF0F910F9349
:1000B00007EC00937A000F910F9300917A0006FDF0
:1000C000FCCF0F910091790008950F9300E00F93FA
:1000D0000FD0D1DF0F9103950F30C9F70F9108951D
:1000E000504544524F3A09414443203D2030780066
:1000F000E0EEF0E0E00F00E0F01F049108950F93B0
:1001000007D00F91000F000F000F000F01D00895CE
:1001100006950695069506950A3010F410E301C081
:0801200017E3010FA8DF0895A9
:00000001FF
