:020000020000FC
:020000004AC0F4
:10004000A9D018950000013049F00A950F930F913F
:100050000F930F91000000000000F5CF08950F935B
:100060000AEFF0DF0F910F930AEFECDF0F910F9380
:100070000AEFE8DF0F910F9309EFE4DF0F91000023
:10008000013041F00A950F930F910F930F910000EB
:100090000000E5CF08950F930FEF0AB90F910F936A
:1000A0000FE004B90F910F9300E305B90F9140E001
:1000B00050E060E070E080E00F9300E004BD0F913D
:1000C0000F9303E005BD0F910F9301E000936E00C5
:1000D0000F910F9306E006BD0F91789400C01C9914
:1000E00004C00F9303E005BD0F911D9904C00F9349
:1000F00000E005BD0F910F931F93052F10E039D03D
:10010000289A1F910F910F9305E0A9DF0F910F938C
:100110001F93062F11E02DD0299A1F910F910F9355
:1001200005E09DDF0F910F931F93072F12E021D061
:100130002A9A1F910F910F9305E091DF0F910F9372
:100140001F93082F13E015D02B9A1F910F910F9337
:1001500005E085DF0F91C3CF3F065B4F666D7D07DE
:100160007F6F0000E8E5F1E0E00F00E0F01F049190
:1001700008950F9300E305B90F91F4DF103019F0E3
:10018000123009F002D00BB908951F9310E8010F47
:100190001F9108950F930FB70F930F9306E006BDBD
:1001A0000F9104D00F910FBF0F91089543954436DE
:1001B00089F440E053955A3069F450E063956A3011
:1001C00049F460E07395763029F470E083958A30C5
:0601D00009F480E008952F
:00000001FF
